:100000000C945E000C9486000C9486000C94860080
:100010000C9486000C9486000C9486000C94860048
:100020000C9486000C9486000C9486000C94860038
:100030000C9486000C94F2050C9486000C948600B7
:100040000C94A7050C9486000C944A080C940F0895
:100050000C9486000C9486000C9486000C94860008
:100060000C9486000C9486000000000024002700F9
:100070002A0000000000250028002B0004040404CE
:100080000404040402020202020203030303030342
:10009000010204081020408001020408102001021F
:1000A00004081020000000070002010000030406FD
:1000B0000000000000000000BC0DAA0D11241FBEAE
:1000C000CFEFD8E0DEBFCDBF12E0A0E0B1E0E8EBBB
:1000D000F6E202C005900D92AA32B107D9F723E0EB
:1000E000AAE2B2E001C01D92AE37B207E1F710E01C
:1000F000CDE5D0E004C02197FE010E944713CC3526
:10010000D107C9F70E94010C0C94AF0F0C940000AA
:100110003FB7F8948091590290915A02A0915B02E6
:10012000B0915C0226B5A89B05C02F3F19F001963F
:10013000A11DB11D3FBFBA2FA92F982F8827820F6D
:10014000911DA11DB11DBC01CD0143E0660F771FBC
:10015000881F991F4A95D1F70895EAE2F2E0A28537
:10016000B3859C91248585858095822B89238C93EA
:10017000A285B3859C91248585858223892B8C93C8
:10018000A681B7819C91208581858095822B8923CA
:100190008C93A681B7819C91208581858223892BB0
:1001A0008C930895DC01ED91FC911197908112964A
:1001B0008C91662311F0892B02C08095892380835E
:1001C0000895DC011D968D919C911E97009739F042
:1001D000DC01ED91FC910284F385E02D09940895F2
:1001E000DC011D968D919C911E97009739F0DC01E2
:1001F000ED91FC910084F185E02D099480E090E080
:100200000895DC011D968D919C911E97DC01ED9166
:10021000FC910680F781E02D0994DC011D968D91FB
:100220009C911E97009739F0DC01ED91FC910480C0
:10023000F581E02D099480E090E00895DC011D96A1
:100240008D919C911E97009739F0DC01ED91FC9106
:100250000190F081E02D099480E090E00895CF9323
:10026000DF93DC01FB0111967C936E9380811296E3
:100270008C931297EA01888113968C93139780814F
:1002800012968C9390818881809589238083DF9159
:10029000CF910895FC018281938108950C94260FDB
:1002A0000C94260FCF93DF93EAE2F2E010821182E2
:1002B00012821382A7E0B3E0B583A483CD91DC91D1
:1002C0001197D783C683888180878FEF8187988134
:1002D00090871296CD91DC911397D387C28798812E
:1002E000948785878881848718969C91189714969F
:1002F0002D913C9115973787268781E0282F01C0E3
:10030000220F9A95EAF7208B19969C9119971696C9
:100310002D913C911797328B218B382F01C0330FD1
:100320009A95EAF7338B91E098831A962D913C9138
:100330001B97358B248B1C962D913C911D97378BE9
:10034000268B1E962D913C911F97318F208F5096B2
:100350002D913C915197338F228F52962C91529729
:1003600014964D915C911597558F448F382F01C08D
:10037000330F2A95EAF7368F53962C91539716969A
:100380004D915C91179750A3478F01C0880F2A9514
:10039000EAF781A390934C028DEA90E0DF91CF9130
:1003A0000C94E30B0F931F93CF93DF938C01EB011E
:1003B000FC0180819181009799F0428153812C81C9
:1003C0003D814217530750F0688179810E948C105B
:1003D0008C819D81F8019583848313C00E94260F30
:1003E00088819981F801918380838A819B8193839D
:1003F00082838C819D8195838483198218821B82DC
:100400001A821D821C82DF91CF911F910F91089556
:100410000F931F93CF93DF93EC018881998100970D
:1004200029F02A813B812617370788F48B016F5FFB
:100430007F4F0E94B20F009761F0998388831B83DE
:100440000A832C813D81232B11F4FC01108281E071
:1004500001C080E0DF91CF911F910F910895CF935C
:10046000DF93EC0188819981009711F00E94260F9B
:10047000198218821D821C821B821A82DF91CF9101
:100480000895EF92FF920F931F93CF93DF93EC01A8
:100490007B018A01BA010E940802811104C0CE01C9
:1004A0000E942F0207C01D830C83B70188819981A8
:1004B0000E948C10CE01DF91CF911F910F91FF9080
:1004C000EF900895CF93DF93EC016115710559F01A
:1004D000FB0101900020E9F73197AF01461B570B54
:1004E0000E94410202C00E942F02CE01DF91CF91F3
:1004F0000895CF93DF93EC01FB018617970761F016
:10050000608171816115710529F0448155810E94D6
:10051000410202C00E942F02CE01DF91CF910895C7
:10052000FC01808191810C94260FEF92FF920F9332
:100530001F93CF93DF93CDB7DEB727970FB6F8940D
:10054000DEBF0FBECDBF8A01790162E771E085EEA3
:1005500092E00E94AF09970140E050E0B801CE015F
:1005600001960E94E809BE016F5F7F4F85EE92E021
:100570000E94B10985EE92E00E948909CE010196A0
:100580000E94900227960FB6F894DEBF0FBECDBF33
:10059000DF91CF911F910F91FF90EF90089590E020
:1005A000FC01EC55FF4F2491FC01E057FF4F3491C3
:1005B000FC01E458FF4FE491EE2309F43CC02223F0
:1005C00039F1233091F038F42130A9F0223001F5CF
:1005D00084B58F7D12C0263091F02730A1F02430F1
:1005E000B9F4809180008F7D03C0809180008F7767
:1005F000809380000DC084B58F7784BD09C0809141
:10060000B0008F7703C08091B0008F7D8093B000E1
:10061000F0E0EE0FFF1FEE58FF4FA591B4919FB78A
:10062000F894611104C08C913095382302C0EC918C
:100630003E2B3C939FBF0895CF93DF9390E0FC0146
:10064000E057FF4F2491FC01E458FF4F8491882329
:1006500061F190E0880F991FFC01E859FF4FC591A7
:10066000D491FC01EE58FF4FA591B491611109C0DE
:100670009FB7F8948881209582238883EC912E235C
:100680000BC0623061F49FB7F8948881322F3095A7
:1006900083238883EC912E2B2C939FBF06C08FB7AA
:1006A000F894E8812E2B28838FBFDF91CF91089596
:1006B000CF92DF92EF92FF92CF93DF936B017C0199
:1006C0000E948800EB01C114D104E104F10479F027
:1006D0000E9488006C1B7D0B683E7340A0F381E094
:1006E000C81AD108E108F108C851DC4FECCFDF91FE
:1006F000CF91FF90EF90DF90CF9008954F925F924F
:100700006F927F928F929F92AF92BF92EF92FF92E1
:100710000F931F93CF93DF93CDB7DEB7C25ED1099E
:100720000FB6F894DEBF0FBECDBF81E0C052DF4FE1
:100730008883C05ED040AE0140525F4F64E670E0F7
:10074000CE0187539F4F0E942F0110E4CF51DF4FFE
:100750001883C15ED040AE014F515F4F6BE770E030
:1007600089EC90E08C0F9D1F04960E942F0180EC75
:10077000CE51DF4F8883C25ED040AE014E515F4FF5
:1007800060E570E089EC90E08C0F9D1F08960E9458
:100790002F0181E890E0CB52DF4F99838883C55DBC
:1007A000D04080918100C952DF4F8883C75DD0401F
:1007B000C852DF4F1883C85DD04080918100C95274
:1007C000DF4F8883C75DD040809181008064809333
:1007D000810020E530E0C752DF4F39832883C95DAF
:1007E000D04080B7C552DF4F8883CB5DD04084E0D6
:1007F000C452DF4F8883CC5DD04080B7C552DF4FF5
:100800008883CB5DD04080B7846080BFC352DF4F08
:1008100039832883CD5DD04080E2C152DF4F888389
:10082000CF5DD04061E082E00E94CF0261E082E0D3
:100830000E941C0364EF71E080E090E00E94580386
:1008400060E082E00E941C0360E082E00E94CF0230
:1008500080914C02811102C00E9452018E010F5FF3
:100860001F4F88ECF80111928A95E9F78FEF9FEFFF
:10087000909389008093880090938B0080938A00E6
:100880001092800085E080938100E0913802F09121
:100890003902908180913A0289239924939481119D
:1008A00001C0912C60E088E392E00E94D200E091C8
:1008B0004602F09147029081809148028923882462
:1008C0008394811101C0812C60E086E492E00E9453
:1008D000D20010922A0210922B0210922C02109237
:1008E0002D02E0913E02F0913F028FB7F8942081F3
:1008F000318187FF01C0789460E089E492E00E9432
:10090000D200A12CB12CE12CF12CE0914902F09104
:100910004A02908180914B02892309F18FB7F894A4
:10092000E0914002F09141026080718087FF01C038
:10093000789460E089E492E00E94D200F701EE0F23
:10094000FF1FEE0FFF1FE00FF11FC301A0E0B0E09B
:1009500080839183A283B383FFEFEF1AFF0A86B3EC
:100960008823C1F080912A0290912B02A0912C0241
:10097000B0912D020196A11DB11D80932A02909382
:100980002B02A0932C02B0932D0260E08BE392E047
:100990000E94D20082E3E816F10448F4EFEFAE1AA9
:1009A000BE0AF0EDAF16F7E0BF0609F0AECF682D36
:1009B00086E492E00E94D200692D88E392E00E94D2
:1009C000D200412C512C320143944E145F0408F0A4
:1009D00059C069E871E08CE193E00E94AF092AE018
:1009E000B301A2018CE193E00E94B90762E971E0D2
:1009F0008CE193E00E94AF09F80184809580A68085
:100A0000B7802AE0B501A4018CE193E00E94B90708
:100A1000F80181919191A191B1918F01881A990A60
:100A2000AA0ABB0A68E971E08CE193E00E94AF0971
:100A30002AE0B501A4018CE193E00E94B9076FE9B7
:100A400071E08CE193E00E94AF09C501B4010E94FE
:100A5000C51120E034E244EF5AE40E941D11AB01BD
:100A6000BC0122E08CE193E00E948B0864EA71E013
:100A70008CE193E00E949D09FFEF4F1A5F0A6F0A15
:100A80007F0AA3CFC752DF4FE881F981C95DD0400B
:100A90009081C552DF4F2881CB5DD040C452DF4FDB
:100AA0008881CC5DD0408095822B89238083CB5276
:100AB000DF4FE881F981C55DD0409081C952DF4F99
:100AC0002881C75DD040C852DF4F8881C85DD040C3
:100AD0008095822B8923808389EC90E08C0F9D1F69
:100AE00008960E94AF0789EC90E08C0F9D1F04963A
:100AF0000E94AF07CE0187539F4F0E94AF0767EA5E
:100B000071E08CE193E00E94AF0922E040E050E008
:100B1000BA018CE193E00E948B088CE193E00E9483
:100B20008909CE51DF4F0FB6F894DEBF0FBECDBF9F
:100B3000DF91CF911F910F91FF90EF90BF90AF90F9
:100B40009F908F907F906F905F904F9008951F922D
:100B50000F920FB60F9211242F933F938F939F9371
:100B6000AF93BF938091550290915602A091570286
:100B7000B09158023091540226E0230F2D3720F413
:100B80000296A11DB11D05C029E8230F0396A11DE2
:100B9000B11D209354028093550290935602A09366
:100BA0005702B09358028091590290915A02A09135
:100BB0005B02B0915C020196A11DB11D80935902A8
:100BC00090935A02A0935B02B0935C02BF91AF91E5
:100BD0009F918F913F912F910F900FBE0F901F907B
:100BE000189508951F920F920FB60F9211242F930C
:100BF0003F934F935F936F937F938F939F93AF93A5
:100C0000BF93EF93FF9380914C02811102C00E9429
:100C1000520180912A0290912B02A0912C02B09156
:100C20002D020196A11DB11D80932A0290932B02E3
:100C3000A0932C02B0932D02FF91EF91BF91AF9141
:100C40009F918F917F916F915F914F913F912F91E4
:100C50000F900FBE0F901F90189508950F931F933C
:100C6000CF93DF93FC01A685B7858D01005C1F4FF4
:100C7000E8018881998101968F739927AD014E5BB8
:100C80005F4FEA012881398128173907D1F3E8013C
:100C900028813981A20FB31F6C93A685B785A05C0C
:100CA000BF4F11969C938E93A689B7892C9181E0B2
:100CB00090E0078C02C0880F991F0A94E2F7822BFC
:100CC0008C9381E081A30488F589E02D8081806484
:100CD000808381E090E0DF91CF911F910F91089583
:100CE000FC0181A1882329F0A489B5898C9186FF14
:100CF000FBCF11A20895FC01A485B585FD01E05C40
:100D0000FF4F2081318132968081918128173907E8
:100D100079F080819181A80FB91F8C912081318158
:100D20002F5F3F4F2F7333273183208390E0089547
:100D30008FEF9FEF0895DC011C96ED91FC911D97BC
:100D4000DF01A05CBF4F2D913C91119712968D91C0
:100D50009C9111972817390739F08D919C91E80FD4
:100D6000F91F808190E008958FEF9FEF0895FC01B7
:100D700024853585F901E05CFF4F808191813296B1
:100D800020813181821B930B8F739927089585EE03
:100D900092E00C94B7060895CF92DF92EF92FF9203
:100DA0000F931F93CF93DF936C01EB017B01E40E54
:100DB000F51E00E010E0CE15DF0561F06991D60167
:100DC000ED91FC910190F081E02DC6010995080F8D
:100DD000191FF1CFC801DF91CF911F910F91FF90A3
:100DE000EF90DF90CF9008956115710579F0FB01C8
:100DF00001900020E9F73197AF01461B570BDC014A
:100E0000ED91FC910280F381E02D099480E090E067
:100E100008950F931F93CF93DF93EC018B011B82F7
:100E20001A8288EE93E0A0E0B0E08C839D83AE83CD
:100E3000BF8386E591E09983888381E08C871E8655
:100E40001D868FEF9FEF988B8F879A8B898BCE01B2
:100E500043960E94590ACE014A960E94590A1AA244
:100E600019A21CA21BA2CE0185960E94590A1E87B8
:100E70000D870115110509F45EC0D8015496ED9156
:100E8000FC91559781E090E09C0190960C90909792
:100E900002C0220F331F0A94E2F720835096ED918F
:100EA000FC91519710825296ED91FC91539727E651
:100EB000208391961C9291975696ED91FC915797AD
:100EC00040819C015C960C905C9702C0220F331FFE
:100ED0000A94E2F7242B20835696ED91FC915797C4
:100EE00040819C015D960C905D9702C0220F331FDC
:100EF0000A94E2F7242B20835696ED91FC915797A4
:100F000040819C015E960C905E9702C0220F331FB9
:100F10000A94E2F7242B20835696ED91FC91579783
:100F200020815F960C9002C0880F991F0A94E2F707
:100F30008095822380838FEF9FEFDC018C839D83DC
:100F4000AE83BF83ED85FE85309721F08483958342
:100F5000A683B783DF91CF911F910F910895FC0174
:100F6000A081B1819C91228183818223892B8C93E2
:100F700008958F929F92AF92BF92CF92DF92EF929D
:100F8000FF920F931F93CF93DF93CDB7DEB7A19757
:100F90000FB6F894DEBF0FBECDBF6C01142FE52F46
:100FA000CB01022F19A2223008F40AE07E0121E2CF
:100FB000E20EF11C802E912CA12CB12C612F7E2FE2
:100FC000A50194010E94EE12029F1019112481E0E4
:100FD000E81AF1081A3014F4105D01C0195CF70129
:100FE0001083122FE32FCA01232B242B252B31F73B
:100FF000B701C6010E94F406A1960FB6F894DEBFB1
:101000000FBECDBFDF91CF911F910F91FF90EF9059
:10101000DF90CF90BF90AF909F908F9008951F92D8
:101020000F920FB60F9211242F933F938F939F939C
:10103000EF93FF9320919D0230919E0280919F0239
:101040009091A0022817390731F48091C1008F7D5B
:101050008093C10014C0E0919F02F091A002E35A76
:10106000FD4F208180919F029091A00201968F7385
:1010700099279093A00280939F022093C600FF912E
:10108000EF919F918F913F912F910F900FBE0F90F5
:101090001F9018951F920F920FB60F9211242F9345
:1010A0004F935F938F939F93EF93FF938091C00033
:1010B00082FD1CC02091C6008091E1029091E20265
:1010C0004091E3025091E40201968F7399274817EB
:1010D000590771F0E091E102F091E202EF55FD4F06
:1010E00020839093E2028093E10202C08091C600C7
:1010F000FF91EF919F918F915F914F912F910F9061
:101100000FBE0F901F901895DC01ED91FC9101909E
:10111000F081E02D09944F925F926F927F928F92AF
:101120009F92AF92BF92CF92DF92EF92FF920F9376
:101130001F93CF93DF938C016A017B01B22E9A013A
:10114000AB01C701B6010E94E912882319F06BEACE
:1011500071E027C026013701E89477F82FEF3FEFC1
:101160004FE75FE7C301B2010E94E91281110DC090
:101170002FEF3FEF4FE75FE7C301B2010E94181165
:1011800018161CF46FEA71E00CC02FEF3FEF4FE729
:101190005FE4C701B6010E9477121816ACF463EB46
:1011A00071E0C801DF91CF911F910F91FF90EF90F7
:1011B000DF90CF90BF90AF909F908F907F906F9077
:1011C0005F904F900C94F4062FEF3FEF4FE75FECEA
:1011D000C701B6010E94181187FDE1CF20E030E081
:1011E000A901C701B6010E94181187FF0AC06DE26C
:1011F000C8010E948408EC01F7FAF094F7F8F09423
:1012000002C0C0E0D0E0A12C60E070E080E09FE38D
:10121000BA1441F020E030E040E251E40E941D1198
:10122000A394F6CFA70196010E94AC106B017C013C
:101230000E9496112B013C012AE0AB01BC01C801C0
:101240000E94B907C80FD91FBB2009F450C0C301C1
:10125000B2010E94C5119B01AC01C701B6010E94F9
:10126000AB102B013C0167EB71E0C8010E94F40652
:10127000C80FD91FFB2C20E030E040E251E4C3014D
:10128000B2010E947C122B013C010E948F114B0184
:10129000770FAA08BB08B7FE13C06DE2C8010E9411
:1012A00084086C0144275527BA01481959096A096D
:1012B0007B092AE0C8010E94B9078C0D9D1D06C05C
:1012C0002AE0B501A401C8010E94B907C80FD91FBF
:1012D000C501B4010E94C7119B01AC01C301B20159
:1012E0000E94AB102B013C01FA94F110C4CFCE0147
:1012F000DF91CF911F910F91FF90EF90DF90CF90F2
:10130000BF90AF909F908F907F906F905F904F9025
:1013100008950F931F93CF93DF93EC016DE00E942C
:1013200084088C016AE0CE010E948408800F911F1E
:10133000DF91CF911F910F9108950F931F93CF933A
:10134000DF93EC010E94F4068C01CE010E94890912
:10135000800F911FDF91CF911F910F9108950C94F1
:10136000F406CF92DF92EF92FF920F931F93CF93E9
:10137000DF937C016B01C0E0D0E000E010E0D6011B
:1013800014968D919C911597C817D907B8F4D70179
:10139000ED91FC910190F081E02DD6018D919C9111
:1013A000009729F0DC01AC0FBD1F6C9101C060E01B
:1013B000C7010995080F191F2196E1CFC801DF91D8
:1013C000CF911F910F91FF90EF90DF90CF900895F4
:1013D000BF92CF92DF92EF92FF920F931F93CF9322
:1013E000DF937C016B018A01E9012417350720F4A2
:1013F000812F8901C42FD82FC7010E94590AD60115
:1014000014968D919C91159780179107C8F08C17B1
:101410009D0708F4EC01D601ED91FC911197EC0FBA
:10142000FD1FB08010826D917C91600F711FC7010C
:101430000E946202D601ED91FC91EC0FFD1FB0827B
:10144000C701DF91CF911F910F91FF90EF90DF9037
:10145000CF90BF900895EF92FF920F931F93CF9379
:10146000DF936115710511F480E01CC04115510531
:10147000C1F07B01EC018C819D818A01080F191F4D
:10148000B801CE010E940802882371F328813981B6
:101490008C819D81B701820F931F0E948C101D8348
:1014A0000C8381E0DF91CF911F910F91FF90EF901E
:1014B0000895FC0111821082138212821582148217
:1014C000168240E050E068E272E00C944102FF9224
:1014D0000F931F93CF93DF93CDB7DEB767970FB608
:1014E000F894DEBF0FBECDBF8C01F82E80913F0374
:1014F000909140030297D9F41A8219821C821B82B0
:101500001E821D821F8261E473E0CE0101960E945B
:10151000790268E272E081E493E00E946202109234
:10152000400310923F03CE0101960E9490028091E9
:10153000450390914603892B89F48BE1F81209C089
:1015400064E272E081E493E00E94620281E090E054
:101550003DC01092400310923F033CC009831A82A1
:1015600041E050E0BE016F5F7F4F81E493E00E9455
:101570002B0A80914503909146038230910530F00B
:10158000E0914103F0914203309729F410926B03EC
:10159000EBE6F3E001C0319620812B35A9F40397E7
:1015A000C8F0E0914103F0914203309729F4109282
:1015B0006B03EBE6F3E001C0329680818354823006
:1015C00018F482E090E002C083E090E09093400342
:1015D00080933F0380913F039091400382309105B7
:1015E00031F08330910581F10197F1F5CCC0809104
:1015F0004503909146038230910508F4C4C0E09100
:101600004103F0914203309709F4BDC021812B358D
:1016100009F0B9C0029709F4B6C08281833419F089
:101620008434C9F0B0C080913D0390913E03209175
:101630003303309134038217930708F0A4C0019656
:1016400090933E0380933D0361E473E08CE193E06B
:101650000E94B10998C080913D0390913E0300978C
:1016600009F491C00197ECCF2091330330913403FA
:1016700008301105E1F42150310940E050E06FE2FB
:1016800073E0CE0101960E94E809BE016F5F7F4FB3
:101690008FE293E00E94D201CE0101960E94900257
:1016A00066E272E08CE193E00E94AF096CC0409169
:1016B0003D0350913E034F5F5F4F6FE273E0CE01F9
:1016C00001960E94E80920913D0330913E0340E0DD
:1016D00050E06FE273E0CE010F960E94E809198690
:1016E00018861B861A861D861C861E86BE01615FB3
:1016F0007F4FCE0108960E9479020E8B1F8A41E02F
:1017000050E0BE016A5E7F4FCE0108960E942B0A10
:10171000811104C0CE0108960E942F024D815E8186
:1017200069817A81CE0108960E942B0A811104C03A
:10173000CE0108960E942F02BE01685F7F4F8FE2A4
:1017400093E00E947902CE0108960E949002CE0199
:101750000F960E949002CE0101960E949002809105
:101760003D0390913E03019690933E0380933D0389
:1017700080912803882339F0602F8091290390916C
:101780002A030E94840867960FB6F894DEBF0FBE46
:10179000CDBFDF91CF911F910F91FF900895A09140
:1017A0007803B0917903109769F0ED91FC9111974E
:1017B00012968D919C91139790937903809378035F
:1017C0000995EDCF0895CF93DF93EC0184E090E08D
:1017D0000E948E0E009781F0FC01D183C08320917E
:1017E0007803309179033383228390937903809334
:1017F000780380E090E002C081E090E0DF91CF913B
:101800000895CF93DF93CDB7DEB7AC970FB6F894BA
:10181000DEBF0FBECDBF789484B5826084BD84B531
:10182000816084BD85B5826085BD85B5816085BDDB
:1018300080916E00816080936E0010928100809193
:10184000810082608093810080918100816080931B
:101850008100809180008160809380008091B10040
:1018600084608093B1008091B00081608093B0006B
:1018700080917A00846080937A0080917A008260FF
:1018800080937A0080917A00816080937A008091C1
:101890007A00806880937A001092C10065EE72E051
:1018A000CE0101966C010E9409078B819C81909367
:1018B0001F0380931E038D819E81AF81B885809325
:1018C000200390932103A0932203B09323038985DF
:1018D0009A85AB85BC858093240390932503A093C0
:1018E0002603B09327038D85809328038E859F85DB
:1018F00090932A03809329038889998990932C03D4
:1019000080932B038A899B8990932E0380932D03C8
:10191000BE016C5E7F4F8FE293E00E94D201BE0158
:10192000655E7F4F86E393E00E94D2018AA19BA16E
:1019300090933E0380933D038CA19DA1909340031F
:1019400080933F03BE016A5D7F4F81E493E00E9474
:10195000D20186E591E09A838983CE0186960E9422
:101960009002CE014B960E949002CE0144960E94B6
:10197000900269EB71E08CE193E00E949D0965EEB5
:1019800071E08CE193E00E949D0964EF71E08CE1CD
:1019900093E00E949D0969EB71E08CE193E00E9465
:1019A0009D098CE193E00E94890960E080916A03BF
:1019B0000E94CF0260E080916A030E941C0364E6EB
:1019C00070E080E090E00E94580389E0982E8CE15E
:1019D00093E00E940D011816190684F568E272E082
:1019E0008FE293E00E94620210923E0310923D0348
:1019F000D601E92D1D92EA95E9F7CE0103960E94E2
:101A0000590A89819A819093400380933F03BE01D4
:101A10006D5F7F4F81E493E00E94D201CE01039677
:101A20000E9490028CE193E00E9401018A309105AE
:101A300099F08D30910509F077C00EC01A82198295
:101A40001C821B821E821D821F826FE273E0C60110
:101A50000E94790210E045C01A8219821C821B8202
:101A60001E821D821F826FE273E0C6010E9479020E
:101A70001123B9F1A980BA8060E270E0C5010E942B
:101A80008110009721F48D819E818A0D9B1D8C0110
:101A90000A191B09E12CF12CE0914A03F0914B0348
:101AA000EE0DFF1D808191810097F9F480914A032A
:101AB00090914B03FC01EE0DFF1D808191810097F9
:101AC00021F480914C0390914D03DC01ED91FC9148
:101AD0000280F381E02D9801A60168E473E0099586
:101AE00011E0C6010E94900272CFDC01ED91FC91E1
:101AF0000190F081E02D0995A801BC01C5010E946B
:101B0000931097012E5F3F4F892B81F27901C4CF4B
:101B10008CE193E00E94010197FDFACF8A30910594
:101B200031F08D30910519F00E94670AF1CF6FE115
:101B300072E08CE193E00E94AF091A8219821C8244
:101B40001B821E821D821F826FE273E0C6010E940B
:101B5000790290CF86E591E090931D0380931C035A
:101B600081E493E00E94900286E393E00E94900259
:101B70008FE293E00C949002CF93DF93CDB7DEB762
:101B80002A970FB6F894DEBF0FBECDBFE5EEF2E0A8
:101B90001382128288EE93E0A0E0B0E08483958304
:101BA000A683B78386E391E09183808381EA92E004
:101BB000958784878DE592E09787868785EC90E00E
:101BC000918B808B84EC90E0938B828B80EC90E007
:101BD000958B848B81EC90E0978B868B82EC90E0E8
:101BE000918F808F86EC90E0938F828F84E0848F3A
:101BF00083E0858F87E0868F25E0278F81E080A3B3
:101C000088E493E046E553E0FC01538342834EE4CD
:101C100053E0558344834EE651E05183408348E2CC
:101C200052E0518740874EE451E05783468342E2B9
:101C300052E05587448746E451E05387428742E5A6
:101C400053E057874687118A108A43E353E363E5DD
:101C500070E4428B538B648B758B46E656E664ECDE
:101C600072E4468B578B608F718F38E0EAE5F3E0C2
:101C7000A2E6B3E001900D923A95E1F732E0FC0163
:101C800032A38AE0E6E0F1E0DE01119601900D92C8
:101C90008A95E1F78AE0FE013196ACE6B3E0019067
:101CA0000D928A95E1F786E490E090937703809314
:101CB00076038AE0E0E1F1E0DE01119601900D92F9
:101CC0008A95E1F78AE0FE013196A7E0B3E0019042
:101CD0000D928A95E1F7E7E0F3E084E890E09387DE
:101CE000828786E890E09587848788E890E09787E8
:101CF00086878AE890E0918B808B228B238B148AD5
:101D000060E070E08CE193E02A960FB6F894DEBFB5
:101D10000FBECDBFDF91CF910C9409070F931F9396
:101D2000CF93DF938230910510F482E090E0E09150
:101D30007C03F0917D0320E030E0A0E0B0E030973C
:101D400019F1408151810281138148175907C8F068
:101D50008417950769F4109731F012960C93129737
:101D600013961C9327C000937C0310937D0322C01D
:101D70002115310519F04217530718F49A01BD01D6
:101D8000EF01DF01F801DBCF21153105F9F0281B48
:101D9000390B2430310580F48A819B8161157105EE
:101DA00021F0FB019383828304C090937D03809391
:101DB0007C03FE01329644C0FE01E20FF31F8193C3
:101DC000919322503109398328833AC020917A03B4
:101DD00030917B03232B41F42091020130910301C8
:101DE00030937B0320937A0320910001309101010D
:101DF0002115310541F42DB73EB7409104015091B2
:101E00000501241B350BE0917A03F0917B03E21767
:101E1000F307A0F42E1B3F0B2817390778F0AC010D
:101E20004E5F5F4F2417350748F04E0F5F1F5093EA
:101E30007B0340937A038193919302C0E0E0F0E04A
:101E4000CF01DF91CF911F910F910895CF93DF9331
:101E5000009709F481C0FC01329713821282A0918D
:101E60007C03B0917D03109781F420813181820F32
:101E7000931F20917A0330917B032817390751F57E
:101E8000F0937B03E0937A0367C0ED0120E030E03C
:101E9000CE17DF0740F44A815B819E014115510551
:101EA000F1F0EA01F5CFD383C28340815181840FE1
:101EB000951FC817D90759F488819981840F951FF8
:101EC0000296918380838A819B81938382832115EB
:101ED000310529F4F0937D03E0937C033DC0E901D3
:101EE000FB83EA8349915991C40FD51FEC17FD0775
:101EF00061F480819181840F951F0296E901998395
:101F00008883828193819B838A83E0E0F0E012964C
:101F10008D919C911397009719F0FD01DC01F7CF8B
:101F20008D919C9111979D012E5F3F4F820F931FC2
:101F300020917A0330917B032817390769F4309791
:101F400029F410927D0310927C0302C01382128246
:101F5000B0937B03A0937A03DF91CF910895F89417
:101F60000C944D13A0E0B0E0E8EBFFE00C941413E8
:101F7000EC01009721F4CB010E948E0EB4C0FC014D
:101F8000E60FF71F9C0122503109E217F30708F40E
:101F9000A8C0D9010D911C91119706171707B0F031
:101FA0000530110508F49BC0C801049786179707F0
:101FB00008F495C002501109061B170B01931193E9
:101FC0006D937C93CF010E94260F89C05B01A01AFC
:101FD000B10A4C01800E911EA0917C03B0917D034B
:101FE000612C712CE12CF12C109709F446C08D91D5
:101FF0009C911197A815B905B1F56C0142E0C40E8A
:10200000D11CCA14DB0478F14C018A189B086401C6
:1020100042E0C40ED11C1296BC9012971396AC915C
:10202000B5E0CB16D10440F0B282A38391828082C6
:10203000D9016D937C9309C00E5F1F4F800F911FD4
:10204000F90191838083EB2DFA2FE114F10431F033
:10205000D7011396FC93EE93129741C0F0937D0342
:10206000E0937C033CC06816790608F43C017D01CE
:1020700012960D90BC91A02DB7CF80917A039091CC
:102080007B0388169906E1F466167706C8F48091FA
:10209000000190910101009741F48DB79EB74091E6
:1020A000040150910501841B950BE817F907C8F44A
:1020B000F0937B03E0937A03F901718360830FC08F
:1020C000CB010E948E0E7C01009759F0A801BE0141
:1020D0000E947810CE010E94260FC70104C0CE01D5
:1020E00002C080E090E0CDB7DEB7EEE00C94301394
:1020F000FB01DC0102C001900D9241505040D8F725
:102100000895FC018191861721F08823D9F799273A
:1021100008953197CF010895FB01DC0101900D92E4
:102120000020E1F70895FB01DC014150504088F0A8
:102130008D9181341CF08B350CF4805E619161349B
:102140001CF06B350CF4605E861B611171F3990B0A
:102150000895881BFCCF5058BB27AA270E94C310A4
:102160000C943D120E942F1238F00E94361220F07B
:1021700039F49F3F19F426F40C942C120EF4E095D8
:10218000E7FB0C942612E92F0E944E1258F3BA175F
:10219000620773078407950720F079F4A6F50C947D
:1021A00070120EF4E0950B2EBA2FA02D0B01B90181
:1021B00090010C01CA01A0011124FF27591B99F0BD
:1021C000593F50F4503E68F11A16F040A22F232FC9
:1021D000342F4427585FF3CF469537952795A79519
:1021E000F0405395C9F77EF41F16BA0B620B730BC0
:1021F000840BBAF09150A1F0FF0FBB1F661F771F31
:10220000881FC2F70EC0BA0F621F731F841F48F4E5
:10221000879577956795B795F7959E3F08F0B0CF6E
:102220009395880F08F09927EE0F97958795089555
:102230000E94021208F481E008950E9431110C946A
:102240003D120E94361258F00E942F1240F029F4DD
:102250005F3F29F00C94261251110C9471120C94CA
:102260002C120E944E1268F39923B1F3552391F377
:10227000951B550BBB27AA2762177307840738F0F5
:102280009F5F5F4F220F331F441FAA1FA9F335D052
:102290000E2E3AF0E0E832D091505040E695001C06
:1022A000CAF72BD0FE2F29D0660F771F881FBB1FC0
:1022B000261737074807AB07B0E809F0BB0B802D9E
:1022C000BF01FF2793585F4F3AF09E3F510578F0CA
:1022D0000C9426120C9471125F3FE4F3983ED4F3F1
:1022E000869577956795B795F7959F5FC9F7880F9E
:1022F000911D9695879597F90895E1E0660F771FF0
:10230000881FBB1F621773078407BA0720F0621B80
:10231000730B840BBA0BEE1F88F7E09508950E94AB
:1023200096116894B1110C94711208950E9456127E
:1023300088F09F5798F0B92F9927B751B0F0E1F086
:10234000660F771F881F991F1AF0BA95C9F714C036
:10235000B13091F00E947012B1E008950C947012A7
:10236000672F782F8827B85F39F0B93FCCF386956F
:1023700077956795B395D9F73EF4909580957095CC
:1023800061957F4F8F4F9F4F0895E89409C097FB49
:102390003EF490958095709561957F4F8F4F9F4F3C
:1023A0009923A9F0F92F96E9BB279395F695879580
:1023B00077956795B795F111F8CFFAF4BB0F11F443
:1023C00060FF1BC06F5F7F4F8F4F9F4F16C08823EA
:1023D00011F096E911C0772321F09EE8872F762F20
:1023E00005C0662371F096E8862F70E060E02AF061
:1023F0009A95660F771F881FDAF7880F969587954D
:1024000097F90895990F0008550FAA0BE0E8FEEF21
:1024100016161706E807F907C0F012161306E407A8
:10242000F50798F0621B730B840B950B39F40A26A1
:1024300061F0232B242B252B21F408950A2609F47F
:10244000A140A6958FEF811D811D089597F99F6783
:1024500080E870E060E008959FEF80EC089500242C
:102460000A941616170618060906089500240A94F9
:1024700012161306140605060895092E0394000C7F
:1024800011F4882352F0BB0F40F4BF2B11F460FF0E
:1024900004C06F5F7F4F8F4F9F4F089557FD905837
:1024A000440F551F59F05F3F71F04795880F97FB18
:1024B000991F61F09F3F79F08795089512161306D2
:1024C0001406551FF2CF4695F1DF08C01616170601
:1024D0001806991FF1CF8695710561050894089536
:1024E000E894BB2766277727CB0197F908950E94C8
:1024F000021208F48FEF08950E948F120C943D127F
:102500000E942F1238F00E94361220F0952311F00D
:102510000C9426120C942C1211240C9471120E940B
:102520004E1270F3959FC1F3950F50E0551F629FB7
:10253000F001729FBB27F00DB11D639FAA27F00D1C
:10254000B11DAA1F649F6627B00DA11D661F829F43
:102550002227B00DA11D621F739FB00DA11D621F28
:10256000839FA00D611D221F749F3327A00D611D45
:10257000231F849F600D211D822F762F6A2F112427
:102580009F5750409AF0F1F088234AF0EE0FFF1F5A
:10259000BB1F661F771F881F91505040A9F79E3FB1
:1025A000510580F00C9426120C9471125F3FE4F3F5
:1025B000983ED4F3869577956795B795F795E79507
:1025C0009F5FC1F7FE2B880F911D9695879597F910
:1025D00008950E940212880B990B0895A1E21A2E09
:1025E000AA1BBB1BFD010DC0AA1FBB1FEE1FFF1FB7
:1025F000A217B307E407F50720F0A21BB30BE40B07
:10260000F50B661F771F881F991F1A9469F760954D
:102610007095809590959B01AC01BD01CF01089507
:102620002F923F924F925F926F927F928F929F92E2
:10263000AF92BF92CF92DF92EF92FF920F931F93D0
:10264000CF93DF93CDB7DEB7CA1BDB0B0FB6F89481
:10265000DEBF0FBECDBF09942A88398848885F84C1
:102660006E847D848C849B84AA84B984C884DF8032
:10267000EE80FD800C811B81AA81B981CE0FD11D16
:102680000FB6F894DEBF0FBECDBFED010895EE0F7B
:10269000FF1F0590F491E02D09940E94CF0B10E0EC
:1026A000CDE5D0E004C0FE010E9447132196CE354F
:0826B000D107C9F7F894FFCF30
:1026B80000007E032000440045006E003500000045
:1026C800800081006F003600000000000000CB068B
:1026D800CC06CB06CB06CB06CB0600000000CB060B
:1026E800CC06000000002E06CC06B7067B069B062B
:1026F8007006000000004A017E03000000004A0145
:102708009502000000001E01CC060D010101F00039
:10271800E100000000002D06500100000000F10556
:102728004E01556E7265636F676E697A65642063E2
:102738006F6D6D616E643A200053616D706C652039
:1027480023002C20543A20002C2064543A200063A3
:1027580079632F006D73004C3A20006E616E00693A
:102768006E66006F7666002E003D3D3D3D3D3D3D69
:102778003D3D3D3D3D3D3D3D3D3D3D3D3D3D3D3D81
:102788003D3D3D3D3D3D3D3D3D3D3D3D3D3D3D3D71
:102798003D3D3D3D006172646D6574657220763023
:1027A8002E303100416E20696E64756374616E630A
:1027B80065206D756C74696D657465722066726FDD
:1027C8006D20612024352041726475696E6F000D9B
:0A27D8000A004C001B00200800005E
:00000001FF
