:100000000C9436000C945E000C945E000C945E0020
:100010000C945E000C945E000C945E000C945E00E8
:100020000C945E000C945E000C945E000C945E00D8
:100030000C945E000C945E000C945E000C945E00C8
:100040000C945E000C945E000C945E000C945E00B8
:100050000C945E000C945E000C945E000C945E00A8
:100060000C945E000C945E00B304FA0611241FBECB
:10007000CFEFD8E0DEBFCDBF23E0ACE6B2E001C0F9
:100080001D92A630B207E1F712E0A0E0B1E0E8E48B
:10009000F7E102C005900D92AC36B107D9F710E038
:1000A000C5E3D0E004C02197FE010E945A07C43383
:1000B000D107C9F70E946B050C94970B0C940000B4
:1000C000FC018081882309F078940895FC019FB792
:1000D000991F9927991F9083F8940895FC018281B4
:1000E0009381089508958AB182FB882780F9089545
:1000F000662311F0529A08955298089589B182FBAF
:10010000882780F90895662311F04A9A08954A983D
:1001100008958BB182FB882780F908958AB1829572
:1001200081700895662311F0549A089554980895A3
:1001300089B1829581700895662311F04C9A0895D3
:100140004C9808958BB182958170089584B1829501
:1001500081700895662311F0249A089524980895D3
:1001600083B1829581700895662311F01C9A0895D9
:100170001C98089585B18295817008958091C00082
:1001800090E0880F892F881F990B91950895089505
:100190008091C00090E0880F892F881F990B892BD0
:1001A000B9F38091C60090E008958A3039F49091B7
:1001B000C00095FFFCCF9DE09093C6009091C000D9
:1001C00095FFFCCF8093C60090E080E00895CF9328
:1001D000DF931F92CDB7DEB7CE0101960E94660075
:1001E0004A9B4A9ACE0101960E94600082EB92E0FF
:1001F0000F90DF91CF9108954A9A08954C9A0895EF
:100200001C9A08956091C4027091C5026115710530
:1002100021F06E5F7F4F0C94C0088FEF9FEF089521
:100220006091C4027091C5026115710521F06E5F85
:100230007F4F0C9490088FEF9FEF08950C94FC076C
:100240000C94FC07FC012081211104C0838194815E
:100250000C94FC0708950F931F93CF93DF938C01A9
:10026000EB010E94220188819981AA81F801808393
:100270009183A2838B819C81948383831C821B82C4
:10028000DF91CF911F910F910895EF92FF920F93FD
:100290001F93CF93DF937C018B01EA01CA01019682
:1002A0000E946007F701DC010E0D1F1DE017F1072A
:1002B00019F021912D93FACFC80FD91F1882DF9121
:1002C000CF911F910F91FF90EF900895CF93DF93FF
:1002D000EC015A8349834115510549F481EC92E0C0
:1002E0009C838B8381E08883DF91CF910895CB013C
:1002F0001882BA010E9445019C838B83F5CF0F932E
:100300001F93CF93DF9300D000D01F92CDB7DEB7FD
:100310008091C4029091C502892B71F18091D50220
:100320009091D6024091CC025091CD02481B590BBE
:100330006091CE027091CF02680F791FCE010196B5
:100340000E9466018C819D810E94020180E290E002
:100350000E94100110E000E08A819B8180179107C4
:1003600038F084E691E00E9402010F5F1F4FF4CF46
:10037000CE0101960E9422010F900F900F900F90D6
:100380000F90DF91CF911F910F910895FB01AF0165
:100390004F5F5F4F2081211105C0AF01461B570BF6
:1003A0000C946601FA01F3CFCF93DF93EC01FB01CC
:1003B000208191818281288399838A83838194819A
:1003C000211105C061817281AB010E9445019C83AE
:1003D0008B83DF91CF910895CF92DF92EF92FF92BE
:1003E0000F931F93CF93DF93EC016B017A01FA0116
:1003F000018112810115110561F40E94D401CE0121
:10040000DF91CF911F910F91FF90EF90DF90CF90F0
:100410000895FB0161817281060F171FA801838176
:1004200094810E944501F701A381B481F6016181A5
:100430007281680F791FF701218132812A0F3B1FDA
:10044000A217B30729F04D91FB014193BF01F8CFEB
:1004500018821A8309839C838B83D1CF0F931F93B8
:10046000CF93DF9300D000D000D01F92CDB7DEB77E
:100470008C011F821E824E83FE013696CF01AF0192
:100480004F5F5F4F208121111EC021E02983E81BAF
:10049000F90BFB83EA839D838C83AE014F5F5F4F33
:1004A000C8010E94EC01CE0101960E942201C80100
:1004B00027960FB6F894DEBF0FBECDBFDF91CF9168
:1004C0001F910F910895FA01DACFFF920F931F93B6
:1004D000CF93DF93CDB7DEB764970FB6F894DEBF46
:1004E0000FBECDBF8C01F82E8091D7029091D8021B
:1004F0000297F9F469ED72E0CE0106960E94D401EC
:1005000060EC71E0CE0101960E94C601BE016F5FF2
:100510007F4F89ED92E00E942B01CE0101960E944F
:1005200022011092D8021092D702CE0106960E94A4
:1005300022018091DA029091DB02892BC9F58BE1CF
:10054000F81218C068E671E0CE0101960E94C6015B
:10055000BE016F5F7F4F89ED92E00E942B01CE01BB
:1005600001960E94220181E090E09093D80280934E
:10057000D70204C01092D8021092D7028091D702FD
:100580009091D8028230910509F442C083309105E0
:10059000C1F1019709F06BC064960FB6F894DEBF05
:1005A0000FBECDBFDF91CF911F910F91FF900895A6
:1005B000402F69ED72E0CE0101960E942E02BE012D
:1005C0006F5F7F4F89ED92E00E942B01CE01019673
:1005D0000E942201E091DC02F091DD0281818B35E5
:1005E00069F48091DA029091DB02039738F28281FC
:1005F0008354823018F482E090E0B7CF83E090E03B
:10060000B4CF8091DC029091DD020E94E708C4CF54
:100610008091DC029091DD02FC0121812B3509F0F3
:10062000BBCF2281233471F0243409F0B5CF20915F
:10063000D5023091D6022115310509F4ADCF2150F4
:1006400031090EC02091D5023091D6024091CC02E2
:100650005091CD022417350708F09ECF2F5F3F4FF2
:100660003093D6022093D5020E94020195CF81E0FB
:10067000888B1A8A198A81EC92E09C8B8B8B0830CC
:10068000110509F06AC08091D5029091D602892B9C
:1006900009F45EC0CE0140960E9422016BEC72E02C
:1006A000CE0140960E94D4018091D5029091D6024D
:1006B0004091CC025091CD02481B590B6091CE0263
:1006C0007091CF02680F791FCE0106960E946601D5
:1006D0004091D5025091D602415051096091CE020D
:1006E0007091CF02CE010B960E946601AE014A5F67
:1006F0005F4FBE01655F7F4FCE0101960E94EC0106
:10070000BE016F5F7F4F8BEC92E00E942B01CE0108
:1007100001960E942201CE010B960E942201CE0179
:1007200006960E9422018091D5029091D6020197EF
:100730009093D6028093D5028091C4029091C50215
:10074000892B31F088E090E00E9410010E947F0127
:10075000CE0140960E9422011FCF6BEC72E0CE01C9
:100760000B960E94D4014091D5025091D6026E851D
:100770007F85CE0106960E946601402FBE016A5F0A
:100780007F4FCE0101960E942E02BE016F5F7F4F08
:100790008BEC92E00E942B01CE0101960E94220177
:1007A000CE0106960E9422018091D5029091D60238
:1007B0004C855D858417950710F5481B590B6E8590
:1007C0007F85680F791FCE0106960E946601AE01F3
:1007D0004A5F5F4F6BEC72E0CE0101960E94EC0124
:1007E000BE016F5F7F4F8BEC92E00E942B01CE0128
:1007F00001960E942201CE0106960E94220180915C
:10080000D5029091D60201969093D6028093D5029C
:100810008091C602882369F08091C4029091C5023C
:10082000892B39F0802F000F990B0E9410010E9434
:100830007F01CE010B960E9422018ACF0895CF93AB
:10084000DF93CDB7DEB78091C4029091C5020097C7
:1008500029F48FEF9FEFDF91CF910895AE01475FAD
:100860005F4F6F81788502960E941209F4CF8AE665
:1008700091E09F938F9382EC92E09F938F930E94DD
:100880001F040F900F900F900F900895CF93DF9358
:1008900000D000D01F92CDB7DEB7FA01638174811A
:1008A000A901CE0101960E9466018D818F938C81F2
:1008B0008F9381E991E09F938F9382EC92E09F93D5
:1008C0008F930E941F04CE0101960E9422010F9077
:1008D0000F900F900F900F900F900F900F900F9020
:1008E0000F900F90DF91CF910895CF93DF931F92D8
:1008F000CDB7DEB78BEA91E09F938F9382EC92E0C5
:100900009F938F930E941F04249ACE0101960E9408
:1009100066000F900F900F900F901C991C9ACE01BB
:1009200001960E9460000F90DF91CF9108958AB1E7
:1009300084618AB90E94E7001F921F921F921F9242
:1009400081EC91E09F938F9382EC92E09F938F9341
:100950000E941F048DB79EB708960FB6F8949EBFED
:100960000FBE8DBF0895CF93DF9300D0CDB7DEB714
:10097000ECE6F2E08DE892E09383828381E892E0F6
:10098000958384838AE391E0918380838AE291E076
:100990009783868380EC91E0908F878B82E291E051
:1009A000968B858B88EC91E0948F838F8AE191E020
:1009B000928F818F8AEC91E090A3878F82E191E002
:1009C000968F858F85E892E092A381A389E892E0D3
:1009D00094A383A316A215A288E0E6E0F1E0A3E9C0
:1009E000B2E001900D928A95E1F788E0E3E9F2E048
:1009F000ABE9B2E001900D928A95E1F782E591E0D2
:100A00009093B3028093B20282E491E09093A402A7
:100A10008093A302E2ECF2E0118210821382128230
:100A200081E084832FEF3FEF368325833087278350
:100A300081871386128621EC32E0358724878687EA
:100A4000108A1786328B218B148A138A168A158A8C
:100A5000878B118E108E338F228FCE0102960E94CB
:100A600066008A818983CE0101960E94600083E33B
:100A700090E09093C5008093C400CE0102960E943E
:100A80006000E0ECF0E080818D7F8083E2ECF0E0BC
:100A9000808186608083E1ECF0E0808188618083E2
:100AA000EEEDF2E082E691E09183808380EF92E0C8
:100AB000918B808B85ED90E09387828788EC90E026
:100AC0009587848783E08583178616860F900F901D
:100AD000DF91CF910895CF93DF93CDB7DEB76C97B9
:100AE0000FB6F894DEBF0FBECDBF4EED52E05A8375
:100AF00049835C834B8381E08D832FEF3FEF3F83FE
:100B00002E83398728878A871C861B8661EC72E0D2
:100B10007E876D878F87198A188A7B8B6A8B1D8ADF
:100B20001C8A1F8A1E8A888F1A8E198E7C8F6B8F63
:100B300002EC12E05093C3024093C2025093C502EC
:100B40004093C4028093C6023093C8022093C70228
:100B50003093CA022093C902BE01665F7F4F8BECBF
:100B600092E00E942B01BE01615F7F4F80ED92E019
:100B70000E942B018C899D899093D6028093D50287
:100B80008E899F899093D8028093D702BE01685EB8
:100B90007F4F89ED92E00E942B01CE0148960E9482
:100BA0002201CE010F960E942201CE010A960E94D8
:100BB000220180EE92E09093FF028093FE029093D8
:100BC000FD028093FC0281ED91E09F938F931F9330
:100BD0000F930E941F048FEF91E09F938F931F93B9
:100BE0000F930E941F048FE092E09F938F931F93B7
:100BF0000F930E941F048BE392E09F938F931F93A8
:100C00000F930E941F0485B7806185BF8AB18B7ED8
:100C10008AB90E94E700CE0101960E9466000FB6D5
:100C2000F894DEBF0FBECDBF4C994C9ACE01019611
:100C30000E9460007724739481ECA82E82E0B82E85
:100C40008091C2029091C302009709F445C0DC0173
:100C5000ED91FC910190F081E02D0995181619068F
:100C6000DCF560EC71E0CE0101960E94C601BE0188
:100C70006F5F7F4F8BEC92E00E942B01CE010196BB
:100C80000E9422011092D6021092D50219821A8275
:100C90001B827B821D821C82BF82AE821092D80290
:100CA0001092D702BE016D5F7F4F89ED92E00E94E6
:100CB0002B01CE0103960E9422018091C2029091E5
:100CC000C3020097A1F002960E941E078A30910588
:100CD00019F08D30910569F46BEC72E0CE0101964C
:100CE0000E94D401CE0101960E942201A9CF8FEF6C
:100CF0009FEF0E9465028091C2029091C30200970B
:100D0000F1F302960E941E0797FDF5CF8A309105F8
:100D100019F08D30910569F789E692E00E94020191
:100D20006BEC72E0CE0101960E94D401CC80DD8094
:100D300060E270E0C6010E948508009721F48A8174
:100D40009B818C0D9D1D7C01EC18FD0810E000E0DE
:100D5000E0916E02F0916F02E00FF11F80819181AE
:100D6000009741F1DC01ED91FC910190F081E02DC3
:100D70000995FC0101900020E9F731974F01881A8D
:100D8000990AE0916E02F0916F02E00FF11F8081ED
:100D90009181DC01ED91FC910190F081E02D0995AC
:100DA000A401BC01C6010E94060798012E5F3F4FB7
:100DB000892BC9F480916E0290916F02080F191F60
:100DC000F80180819181009781F0DC01ED91FC9127
:100DD0000280F381E02D9701AE014F5F5F4F6CE61B
:100DE00072E009957FCF8901B3CF80917002909115
:100DF0007102EBCF89ED92E00E94220180ED92E03A
:100E00000E9422018BEC92E00C942201FB01DC0198
:100E10004150504088F08D9181341CF08B350CF49A
:100E2000805E619161341CF06B350CF4605E861B52
:100E3000611171F3990B0895881BFCCFCF93DF9359
:100E4000EC012B8120FF1AC026FF0CC02F7B2B83C7
:100E50008E819F8101969F838E838A8190E0DF91AE
:100E6000CF91089522FF18C0E881F9818081082E72
:100E7000000C990B009729F420622B838FEF9FEFD2
:100E8000EECF3196F983E8832E813F812F5F3F4F6C
:100E90003F832E839927E3CFEA85FB85099597FF4A
:100EA000F3CF2B81019621F080E2822B8B83E6CF5A
:100EB00080E1FBCFEE0FFF1F0590F491E02D099428
:100EC0000F931F93CF93DF938230910510F482E04C
:100ED00090E0E0910403F091050330E020E0B0E001
:100EE000A0E0309799F42115310509F44AC0281B78
:100EF000390B24303105D8F58A819B816115710544
:100F000089F1FB0193838283FE0111C040815181ED
:100F10000281138148175907E0F04817590799F4DF
:100F2000109761F012960C93129713961C933296B9
:100F3000CF01DF91CF911F910F910895009304038A
:100F400010930503F4CF2115310551F042175307D3
:100F500038F0A901DB019A01BD01DF01F801C1CF21
:100F6000EF01F9CF9093050380930403CDCFFE01E9
:100F7000E20FF31F81939193225031093983288323
:100F8000D7CF2091020330910303232B41F420910A
:100F90000201309103013093030320930203209157
:100FA0000001309101012115310541F42DB73EB703
:100FB0004091040150910501241B350BE09102037F
:100FC000F0910303E217F307A0F42E1B3F0B281741
:100FD000390778F0AC014E5F5F4F2417350748F0B2
:100FE0004E0F5F1F5093030340930203819391932D
:100FF0009FCFF0E0E0E09CCFCF93DF930097E9F044
:10100000FC01329713821282A0910403B091050370
:10101000ED0130E020E01097A1F420813181820FB2
:10102000931F20910203309103032817390709F019
:1010300061C0F0930303E0930203DF91CF91089521
:10104000EA01CE17DF07E8F54A815B819E01411571
:101050005105B1F7E901FB83EA8349915991C40F26
:10106000D51FEC17FD0761F4808191810296840FF2
:10107000951FE90199838883828193819B838A8369
:10108000F0E0E0E012968D919C9113970097B9F5EE
:101090002D913C911197CD010296820F931F2091C3
:1010A0000203309103032817390739F6309751F5B9
:1010B0001092050310920403B0930303A09302035C
:1010C000BCCFD383C28340815181840F951FC81741
:1010D000D90761F44E5F5F4F88819981480F591F8E
:1010E000518340838A819B819383828321153105BB
:1010F00009F0B0CFF0930503E09304039ECFFD0108
:10110000DC01C0CF13821282D7CFFC0181918617F8
:1011100021F08823D9F7992708953197CF010895B1
:101120000F931F93CF93DF93182F092FEB018B8120
:1011300081FD09C01FEF0FEF812F902FDF91CF911D
:101140001F910F91089582FF14C02E813F818C81E1
:101150009D81281739073CF4E881F981CF01019678
:101160009983888310838E819F8101969F838E83CC
:10117000E3CFE885F985812F0995892BA1F3DACF93
:10118000EF92FF920F931F93CF93DF93FB01238185
:1011900021FF19C0EB018C01F12CE12CF8018191A8
:1011A0008F01811106C0C701CDB7DEB7E6E00C9410
:1011B000880BE885F985BE010995892B79F3EE2422
:1011C000EA94FE2CEBCFEE24EA94FE2CECCF0F93A6
:1011D0001F93CF93DF93E091FE02F091FF022381F2
:1011E000EC0110E000E021FD08C00FEF1FEF14C07C
:1011F0000995892B11F00FEF1FEF89916091FE0285
:101200007091FF02DB011896ED91FC918111F0CFF6
:101210008AE00995892B49F7C801DF91CF911F9189
:101220000F910895ABE0B0E0E8E1F9E00C94600BB9
:101230007C013B018A01FC0117821682838181FFB8
:10124000C8C1CE0101965C01F7019381F30193FDC2
:10125000859193FF81913F01882309F453C1853221
:1012600039F493FD859193FF81913F01853229F4F3
:10127000B70190E00E949008E7CF912C212C312CEF
:10128000FFE1F31538F08B3211F190F4803209F15F
:10129000833229F137FC3CC020ED280F2A3050F56D
:1012A00036FE20C08AE0989E200D1124922E06C0A2
:1012B0008D3291F0803371F7689430F8F30193FD2B
:1012C000859193FF81913F018111DACF21C068940C
:1012D00031F8689432F8F2CF689433F8EFCF68941D
:1012E00034F8ECCFEAE02E9E200D1124222E6894D3
:1012F00035F8E4CF8E3229F436FC04C1689436F810
:10130000DDCF8C3619F4689437F8D8CF8836B1F22F
:10131000982F9F7D95549330E0F08336A1F1833769
:10132000C1F1833509F063C02801F2E04F0E511C72
:10133000F801C080D180692D70E036FC02C06FEFEB
:101340007FEFC6010E94EC0A4C01689437F88201D5
:101350000AC00C5F1F4FFFE3F98388248394912C0C
:101360006501E89437F833FE2DC0522C81149104A6
:1013700071F5552009F468CFB70180E290E00E9432
:1013800090085A94F6CFF801808189830E5F1F4F31
:10139000E4CF2801F2E04F0E511CF801C080D1804B
:1013A000692D70E036FC02C06FEF7FEFC6010E942E
:1013B000F70A4C018201D5CFB70180E290E00E948C
:1013C00090082A942814190409F0B0F7CECFF6013A
:1013D00037FC859137FE81916F01B70190E00E9443
:1013E000900851105A94F1E08F1A9108BFCF8436BB
:1013F00019F0893609F077C0F80137FE6BC06081BB
:101400007181828193810C5F1F4FF32DFF763F2EF8
:1014100097FF09C090958095709561957F4F8F4F8C
:101420009F4F689437F82AE030E0A5010E94020B34
:10143000C82ECA188C2C432C36FE0CC0E89440F8F9
:10144000C91440F434FE05C032FC03C0F32DFE7E07
:101450004F2E892C44FE95C0FE01EC0DF11D8081BC
:10146000803309F087C0242D297E422E842D887078
:10147000582E43FC95C040FE8FC09C2C821418F45B
:101480002C0C922C981844FE91C0B70180E390E098
:101490000E94900842FE09C088E790E041FE02C029
:1014A00088E590E0B7010E949008C91408F48AC04A
:1014B000CA94D12C9FEFC91AD90ACA0CDB1CF601B9
:1014C00082916F01B70190E00E949008AC14BD04B6
:1014D000B1F74FCF60817181072E000C880B990BFB
:1014E0000E5F1F4F92CFD32CE894D4F82AE030E05F
:1014F000853739F1232D297FD22E8F3601F148F41B
:101500008835A9F0F701868197812B96E2E10C944A
:101510007C0B803749F08837A9F7D4FE02C0689465
:10152000D2F820E130E00DC06894D4F8F6CF34FE54
:1015300003C0822F8660D82E20E132E002C028E06E
:1015400030E0F801D7FE0FC0608171818281938104
:101550000C5F1F4FA5010E94020BC82ECA183D2C1C
:10156000E89437F867CF6081718190E080E00E5F8A
:101570001F4FF0CF42FC02C0839478CF83948394B2
:1015800075CF842D867809F471CFF6CFB70180E24C
:1015900090E00E94900883948214C0F3512C73CF82
:1015A000522C5818821408F46ECFF8CF842D867808
:1015B00009F47BCF8BE241FE80E247FC8DE2B7016C
:1015C00090E071CFB70180E390E00E9490089A9478
:1015D0006CCF8FEF9FEF99CFFC0105906150704069
:1015E0000110D8F7809590958E0F9F1F0895FC01EC
:1015F0006150704001900110D8F7809590958E0F42
:101600009F1F0895FA01AA27283051F1203181F156
:10161000E8946F936E7F6E5F7F4F8F4F9F4FAF4FFA
:10162000B1E03ED0B4E03CD0670F781F891F9A1F0D
:10163000A11D680F791F8A1F911DA11D6A0F711DC1
:10164000811D911DA11D20D009F468943F912AE0CD
:10165000269F11243019305D3193DEF6CF010895B5
:10166000462F4770405D4193B3E00FD0C9F7F6CFE6
:10167000462F4F70405D4A3318F0495D31FD4052AE
:10168000419302D0A9F7EACFB4E0A6959795879544
:1016900077956795BA95C9F7009761057105089523
:1016A0009B01AC010A2E06945795479537952795CF
:1016B000BA95C9F7620F731F841F951FA01D089567
:1016C0002F923F924F925F926F927F928F929F9252
:1016D000AF92BF92CF92DF92EF92FF920F931F9340
:1016E000CF93DF93CDB7DEB7CA1BDB0B0FB6F894F1
:1016F000DEBF0FBECDBF09942A88398848885F8431
:101700006E847D848C849B84AA84B984C884DF80A1
:10171000EE80FD800C811B81AA81B981CE0FD11D85
:101720000FB6F894DEBF0FBECDBFED01089510E0F7
:10173000C5E3D0E004C0FE010E945A072196C633DB
:08174000D107C9F7F894FFCFAF
:10174800000006038000333353406666C44200003D
:1017580000006E007504000000006E009704000091
:1017680000006E00460400000000BA00B400B0009B
:10177800AA00A600000100000000C7002001000028
:101788000000A2009C00980092008E00FE0000005D
:101798000000890083007E0078007300FC000000D0
:1017A8000000BE001B5B44001B005741524E494ECF
:1017B800473A2050555245205649525455414C20DD
:1017C80046554E4354494F4E2043414C4C45440ADC
:1017D80000556E7265636F676E697A656420636F22
:1017E8006D6D616E643A2025730A005265626F6FF1
:1017F80074696E672073797374656D2E2E2E0A0ACC
:10180800004C3A2025660A004C007265626F6F74BE
:10181800000A3D3D3D3D3D3D3D3D3D3D3D3D3D3D60
:101828003D3D3D3D3D3D3D3D3D3D3D3D3D3D3D3DE0
:101838003D3D3D3D3D3D3D3D3D3D3D3D3D0A00611C
:1018480072646D657465722076302E30310A0041FD
:101858006E20696E64756374616E6365206D756C66
:1018680074696D657465722066726F6D20612024DD
:10187800352041726475696E6F0A003D3D3D3D3DFE
:101888003D3D3D3D3D3D3D3D3D3D3D3D3D3D3D3D80
:101898003D3D3D3D3D3D3D3D3D3D3D3D3D3D3D3D70
:0C18A8003D3D3D3D3D3D0A0A000D0A009B
:00000001FF
